S00D000044485431312E73726563D5
S113000045C0000060C000005EC000005CC000008D
S11300105AC0000058C0000056C0000054C0000080
S113002052C0000050C000004EC000004CC0000090
S11300304AC0000048C0000046C0000044C00000A0
S113004042C0000040C000003EC000003CC00000B0
S11300503AC0000038C0000036C0000034C00000C0
S113006032C0000030C000002EC000002CC00000D0
S11300702AC0000028C0000026C0000024C00000E0
S113008022C0000020C000001EC0000011241FBEBA
S1130090CFEFD0E1DEBFCDBF11E0A0E0B1E0E2EAF6
S11300A0F3E000E00BBF02C007900D92A831B10746
S11300B0D9F721E0A8E1B1E001C01D92AE31B20749
S11300C0E1F7B9D06CC19CCF8E9A96982FEF89EF47
S11300D090E0215080409040E1F700C00000969AE3
S11300E008958E988699FECF869BFECF8699FECF83
S11300F0089588E090E0869BFECF20EA2A95F1F7E8
S1130100869B07C020911801220F216020931801BB
S113011005C020911801220F209318018699FECF63
S11301200197009741F7809118010895EFE3FFE1EB
S11301303197F1F700C00000982F907F98BB98B3D7
S11301409C7F98BBF5E0FA95F1F70000C29A25E090
S11301502A95F1F70000C298E0E18E9FC0011124B6
S113016088BB88B38C7F88BBF5E0FA95F1F7000073
S1130170C29A25E02A95F1F70000C2980895EFE3AA
S1130180FFE13197F1F700C00000982F907F98BBF2
S1130190C09AC198F5E0FA95F1F70000C29A25E0FB
S11301A02A95F1F70000C298E0E18E9FC001112466
S11301B088BBC09AC198F5E0FA95F1F70000C29A9D
S11301C025E02A95F1F70000C29808952FEF86E7FD
S11301D091E0215080409040E1F700C0000088E2A7
S11301E0A5DF20ED2A95F1F78CE0A0DF80ED8A955C
S11301F0F1F781E09BDF87EE97E10197F1F700C00B
S1130200000086E093CF089581E090DF87EE97E1C8
S11302100197F1F700C000000895CF93DF93EC013C
S11302208881882329F02196AADF89918111FCCF46
S1130230DF91CF910895CF93DF9300D000D01F9228
S1130240CDB7DEB78FEF87BB18BAC0DF80E86EDFAB
S113025080E091E0E2DF80EC69DF8BE091E0DDDFBC
S113026033DF3FDF46DF80931C0143DF80931901B6
S113027040DF80931B013DDF80931D013ADF8093B3
S11302801A0120911C0130E090911901A901490F34
S1130290511D90911B01490F511D90911D01490F52
S11302A0511D90E04817590729F0AEDF82E191E033
S11302B0B4DF38C04AE0BE016F5F7F4FC9013CD054
S11302C08BE834DFCE010196A8DF8EE258DF8091FF
S11302D019014AE0BE016F5F7F4F90E02DD0CE013F
S11302E001969BDF85E24BDF80911B014AE0BE0152
S11302F06F5F7F4F90E020D087EC18DFCE0101962E
S11303008CDF8EE23CDF80911D014AE0BE016F5F0D
S11303107F4F90E011D0CE0101967FDF8FED2FDF6C
S113032083E42DDF2FEF8BE792E92150804090404A
S1130330E1F700C0000094CFBB274A3031F4992381
S113034022F4BDE2909581959F4F01C0BB27FB012C
S11303505527AA27880F991FAA1FA41710F0A41BBA
S113036083955051B9F7A05DAA3308F0A95DA19314
S1130370009779F7B111B1931192CB0100C0DC0160
S1130380FC01672F71917723E1F7329704C07C91C8
S11303906D9370836291AE17BF07C8F30895F89404
S10503A0FFCF89
S11303A248756D6964697479203D0054656D7020E7
S10B03B23D004552524F520078
S9030000FC
