S01A000042616C6C5377697463685F776974685F49522E7372656308
S113000045C000004BC0000049C0000047C00000CC
S113001045C0000043C0000041C000003FC00000D4
S11300203DC000003BC0000039C0000037C00000E4
S113003035C0000033C0000031C000002FC00000F4
S11300402DC000002BC0000029C0000027C0000004
S113005025C0000023C0000021C000001FC0000014
S11300601DC000001BC0000019C0000017C0000024
S113007015C0000013C0000011C000000FC0000034
S11300800DC000000BC0000009C0000011241FBEF9
S1130090CFEFD0E1DEBFCDBF1BD044C0B1CF909332
S11300A0900089B988E18AB908955D9BFECF8CB927
S11300B00895CF93DF93D82FC62F82E0F6DF8D2FDC
S11300C0F4DF8C2FF2DF83E0F0DFDF91CF9108952E
S11300D01ABA87E690E0E3DF8FEF84BBC1E0DC2F40
S11300E014E0C8990EC0C5BB60E08D2FE2DF2FEF8E
S11300F081EE94E0215080409040E1F700C0000080
S113010015BAC999EECF15BB6C2F80E0D2DF2FEF63
S113011081EE94E0215080409040E1F700C000005F
S10B012015BADFCFF894FFCFFC
S9030000FC
