S00F00005247425F4C45442E7372656306
S113000045C0000053C0000051C000004FC00000B4
S11300104DC000004BC0000049C0000047C00000B4
S113002045C0000043C0000041C000003FC00000C4
S11300303DC000003BC0000039C0000037C00000D4
S113004035C0000033C000003CC000002FC00000D9
S11300502DC000002BC0000029C0000027C00000F4
S113006025C0000023C0000021C000001FC0000004
S11300701DC000001BC0000019C0000017C0000014
S113008015C0000013C0000011C0000011241FBEE1
S1130090CFEFD0E1DEBFCDBF21E0A0E0B1E001C0F1
S11300A01D92AD30B207E1F771D07DC0A9CF909316
S11300B0900089B988E18AB908955D9BFECF8CB917
S11300C008951F920F920FB60F9211242F938F93BE
S11300D09F932CB1109202011092010180910001B2
S11300E0882319F0813081F020C0223051F482E05D
S11300F090E0909304018093030181E080930001D8
S113010016C01092000113C0822F90E09093040156
S113011080930301233059F481E090E0909302012D
S1130120809301011092000102C0109200019F917E
S11301308F912F910F900FBE0F901F9018950F93D2
S11301401F93CF93DF938091010190910201019756
S1130150C1F48091050181BF00910701109108014C
S11301601BBD0ABDC0910901D0910A01D9BDC8BD0A
S1130170A4DF802FA2DF8C2FA0DF10920201109247
S11301800101DF91CF911F910F91089587E690E0CF
S11301908EDF8FEF87BB18BA8AE683BF8FBD8EBD13
S10D01A07894CDDFFECFF894FFCF72
S9030000FC
